:020000040800F2
:1000000000500020D12000083121000831210008D3
:1000100031210008312100083121000800000000D2
:100020000000000000000000000000003121000876
:1000300031210008000000003121000817160008D7
:100040003121000831210008312100083121000848
:100050003121000831210008051700080B1700089E
:1000600011170008171700081D1700083121000894
:100070003121000831210008312100083121000818
:100080003121000831210008312100083121000808
:100090003121000831210008312100082317000810
:1000A00031210008A114000831210008B51400080E
:1000B000B9140008CD140008E1140008312100082B
:1000C00031210008312100083121000831210008C8
:1000D0003121000869200008812000089D200008C7
:1000E0003917000831210008312100080000000004
:1000F0000000000000000000000000000000000000
:0C01000000000000000000005FF808F1A3
:10010C00034613F8012B002AFBD1181A013870474B
:10011C0010B5054C237833B9044B13B10448AFF335
:10012C0000800123237010BD680000200000000037
:10013C001028000808B5034B1BB103490348AFF363
:10014C00008008BD000000006C0000201028000892
:10015C0070B50C4686B00546002600F005FA012362
:10016C0004F50034A40201A902A805930296049494
:10017C0000F0A4FA2A4633462146022000F03AFA4F
:10018C0000F004FA06B070BD2DE9F0410D4686B0C2
:10019C000646002400F0E8F9012305F50035694610
:1001AC00AD0202A80294049505934FF0FF3800F0BD
:1001BC0085FA3046FFF7A4FF0130A04205EB040797
:1001CC0004D800F0E3F906B0BDE8F0813046CDF874
:1001DC000480FFF795FF021B032A28BF0322311965
:1001EC00013201A802F0B0FA002339460220019A2C
:1001FC0000F000FA0434DCE70B4600F5003110B5D2
:10020C0018468902144602F09FFA03460022234442
:10021C0003F8012C10BD000030B5154C85B006223A
:10022C0020464FF4E13102F041F900211148FFF76B
:10023C008FFF01211048FFF7A7FF4FF000631D68E7
:10024C0020460E4902F0A8F929460A22204602F05F
:10025C00E3F90A2201A90120FFF7CEFF2046084945
:10026C0002F09AF9204601A902F0ACF905B030BDB4
:10027C0004020020D36066FC2828000832280008FD
:10028C00432800087047704738B50E4B05461A785E
:10029C004FF47A73B3FBF2F30B4A1068B0FBF3F034
:1002AC0000F09CF8044658B90F2D09D8024629468F
:1002BC004FF0FF3000F042F82046044B1D6038BD73
:1002CC000120FCE7000000201000002004000020AA
:1002DC00074A08B51368032043F01003136000F0BD
:1002EC001BF80020FFF7D0FFFFF7CDFF002008BD63
:1002FC0000200240034A044B11681B780B44136026
:10030C00704700BF8400002000000020014B1868DB
:10031C00704700BF8400002007490302CA6803F439
:10032C00E06322F4E0621204120C134343F0BF6347
:10033C0043F40033CB60704700ED00E0154B30B553
:10034C00DC68C4F30224C4F10703251D042B28BF69
:10035C000423062D4FF0FF3594BF0024033C05FA0F
:10036C0003F321EA0303A54022EA0502A340002877
:10037C0043EA0203ACBF00F16040074A4FEA0313A3
:10038C00DBB2ABBF00F5614000F00F0080F800332A
:10039C00135430BD00ED00E014ED00E0002807DB45
:1003AC0001234109034A00F01F00834042F8213029
:1003BC00704700BF00E100E000280CDB0122064979
:1003CC00430900F01F008240203341F82320BFF383
:1003DC004F8FBFF36F8F704700E100E00138B0F131
:1003EC00807F0BD24FF0E023F021054A586182F850
:1003FC0023100020072298611A6170470120704772
:10040C0000ED00E0002808DB01224309034900F05D
:10041C001F008240603341F82320704700E100E068
:10042C00704708B5FFF7FCFF08BD704710B50446D0
:10043C0050B1437903F0FF0213B90271FFF7F5FFD6
:10044C0001230020637110BD0120FCE790F82120EE
:10045C000346022A06D0042282630120002283F87C
:10046C00202070470268C06B116821F00E011160EA
:10047C00116821F00101116001211A6C01FA02F2DC
:10048C004260002083F82110E8E7000008B590F8DE
:10049C002130022B03D004238363012008BD0368A1
:1004AC001A6822F00E021A601A6822F001021A6011
:1004BC00174A93421FD0143293421ED014329342E7
:1004CC001DD0143293421DD0143293421DD01432DD
:1004DC00934214BF4FF080734FF480130D4A536056
:1004EC00012380F82130002380F82030436B03B1C6
:1004FC0098470020D2E70123F0E71023EEE74FF4F2
:10050C008073EBE74FF48053E8E74FF48033E5E773
:10051C000800024000000240114AD36813F0100397
:10052C0005D01049CB6943F00203CB611023D2688C
:10053C00500706D50B4943F00403CA6942F0010287
:10054C00CA61074AD169C90708D50648C16941F093
:10055C000401C161D16921F00101D161D3607047FF
:10056C000020024088000020064B186910F0800023
:10057C0007D0054A5A6002F188325A601869C0F3F4
:10058C00C01070470020024023016745034A002039
:10059C00136943F080031361704700BF00200240D1
:1005AC0070B50546FFF7B2FE0646114CE368D80756
:1005BC0012D4E368990644BF2023E360E368DA06AB
:1005CC0006D4E369DB0703D4E06810F0040007D01D
:1005DC00FFF7A2FF012003E06B1CE7D00DB903204D
:1005EC0070BDFFF793FE801BA842DFD9F7E700BF71
:1005FC00002002402DE9F84FDFF894A01F469AF82E
:10060C0018300546012B884691463FD001234CF209
:10061C0050308AF81830FFF7C3FF90BB012D03D080
:10062C00022D14BF0425022500263346DFF864B0E2
:10063C003401C4F12001A4F1200207FA01F129FAD6
:10064C0004F4CAF81C300C4327FA02F21443DBF80A
:10065C001020A4B242F00102CBF810204CF2503022
:10066C0028F81640FFF79CFFDBF8102022F001025F
:10067C00CBF8102028B90136F2B295424FF00003A6
:10068C00D6D800238AF81830BDE8F88F0220FBE793
:10069C0088000020002002400022064BDA61064B45
:1006AC001A6942F002021A6158611A6942F040025A
:1006BC001A61704788000020002002402DE9F041AB
:1006CC00264F05463B7E8846012B44D001243C76C0
:1006DC0003684CF25030022B1AD1FFF761FF20B1A6
:1006EC00012000233B76BDE8F0811D4CF8612369A5
:1006FC004CF2503043F004032361236943F0400370
:10070C002361FFF74DFF236923F004032361E8E71E
:10071C00FFF746FF0028E3D14FF0FF33C8F8003055
:10072C002046AE680E4CD5E9023203EB8223B3426D
:10073C00D7D93046FFF7B0FF4CF25030FFF730FFFF
:10074C00236923F00203236110B1C8F80060C8E7E5
:10075C0006F58066E7E70220C5E700BF88000020A9
:10076C0000200240044A08B55169014202D0506190
:10077C0000F0ACFF08BD00BF000401402DE9F341BF
:10078C00054638B30368DB0710D42B689F075ED48B
:10079C002B68190700F195802B685A0700F1C1806E
:1007AC00EB69002B40F02C81002029E0904C636811
:1007BC0003F00C03042B07D0636803F00C03082B25
:1007CC000AD16368DE0307D523689C03DDD56B680B
:1007DC00002BDAD1012013E06B68B3F5803F12D106
:1007EC00236843F480332360FFF790FD06462368AB
:1007FC009803CAD4FFF78AFD801B6428F7D903201D
:10080C0002B0BDE8F0819BB9236823F480332360E8
:10081C00236823F480232360FFF778FD06462368C2
:10082C009903B2D5FFF772FD801B6428F7D9E6E770
:10083C00B3F5A02F236803D143F480232360CFE7C3
:10084C0023F480332360236823F48023CBE7684CA4
:10085C00636813F00C0F07D0636803F00C03082BCC
:10086C0010D16368DA030DD423689B0702D52B697A
:10087C00012BAFD123686A6923F0F80343EAC20362
:10088C00236085E72A695B4B6AB101221A60FFF786
:10089C003DFD064623689F07ECD4FFF737FD801B10
:1008AC000228F7D9ABE71A60FFF730FD064623683C
:1008BC0098077FF56DAFFFF729FD801B0228F6D94D
:1008CC009DE7AA694A4E4B4BE2B10122C3F8802442
:1008DC00FFF71CFD0446736A9B070DD54FF4FA52C3
:1008EC00454B1B68B3FBF2F3019300BF019B5A1EEF
:1008FC000192002BF9D14FE7FFF708FD001B0228EE
:10090C00E9D97CE7C3F88024FFF700FD0446736A3D
:10091C009F077FF541AFFFF7F9FC001B0228F6D9C2
:10092C006DE7334CE369D80024D40127E36943F025
:10093C008053E361E36903F080530093009B2F4ED7
:10094C003368D90518D5EB68012B26D1236A43F0FF
:10095C0001032362FFF7DAFC41F288380646236A6A
:10096C009B073FD5002F3FF41BAFE36923F0805367
:10097C00E36115E70027E2E7336843F480733360E3
:10098C00FFF7C4FC80463368DA05DCD4FFF7BEFC05
:10099C00A0EB08006428F6D931E7ABB9236A41F221
:1009AC00883823F001032362236A23F004032362B3
:1009BC00FFF7ACFC0646236A9807D3D5FFF7A6FCD5
:1009CC00801B4045F7D91AE7052B236A03D143F066
:1009DC0004032362BAE723F001032362236A23F0A2
:1009EC000403B6E7FFF792FC801B4045B7D906E736
:1009FC000010024000004242100000200070004035
:100A0C002A4C626802F00C02082A3ED00022022B0B
:100A1C00274B1A662CD1FFF779FC064623689901FF
:100A2C0020D42B6AB3F5803F05D16268A96822F403
:100A3C0000320A436260696A62680B4322F47412E2
:100A4C001343012263601A4B1A66FFF75FFC0546DD
:100A5C0023689A013FF5A8AEFFF758FC401B02280B
:100A6C00F6D9CCE6FFF752FC801B0228D6D9C6E695
:100A7C00FFF74CFC054623689B017FF595AEFFF70D
:100A8C0045FC401B0228F6D9B9E6012B3FF4A2AE77
:100A9C0060682B6A00F480329A427FF49BAE6B6ADA
:100AAC0000F47010C01A18BF0120A9E60010024013
:100ABC00000042420D4A536803F00C01082912D180
:100ACC000B48C3F38341DB03405C09D55368094AE7
:100ADC00C3F340435043084AD35CB0FBF3F0704778
:100AEC00064B584370470348704700BF0010024044
:100AFC005828000800127A005628000800093D000A
:100B0C002DE9F0410D46044610B90120BDE8F081F5
:100B1C00444A136803F007038B4228D321688E07DD
:100B2C0030D4CA0743D43F4A136803F00703AB42DF
:100B3C0065D822683C4D12F0040F6CD1130706D512
:100B4C006B68226923F4605343EAC2036B60FFF7BE
:100B5C00B1FF6B68354AC3F30313D35CD840344BF5
:100B6C001860344B1868FFF78FFB0020CEE7136832
:100B7C0023F007030B431360136803F007038B4246
:100B8C00C3D1CBE7284B11F0040F1EBF5A6842F4B7
:100B9C00E0625A60080742BF5A6842F460525A60D9
:100BAC005A68A06822F0F00202435A60B9E7626802
:100BBC001D4E012A33681AD113F4003FA5D0736877
:100BCC0041F2883823F0030313437360FFF79EFB55
:100BDC0007467368626803F00C03B3EB820FA2D074
:100BEC00FFF794FBC01B4045F3D903208EE7022A84
:100BFC0002D113F0007FE1E713F0020FDEE7136878
:100C0C0023F007032B431360136803F00703AB4275
:100C1C007FF47BAF8DE76B68E16823F4E0630B43F3
:100C2C006B608BE70020024000100240B0280008E7
:100C3C001000002004000020044B054A5B68C3F33D
:100C4C000223D35C034A1068D8407047001002405E
:100C5C00A828000810000020044B054A5B68C3F369
:100C6C00C223D35C034A1068D8407047001002407E
:100C7C00A82800081000002003682DE9F341054660
:100C8C00D80721D5364CE369D9002BD40126E3696A
:100C9C0043F08053E361E36903F080530193019BBC
:100CAC00304F3B68DA051FD5236A6A6813F440732A
:100CBC002ED1236A6A6823F44073134323621EB156
:100CCC00E36923F08053E3612A68910706D5244930
:100CDC00A8684B6823F4404303434B60D30636D4D7
:100CEC00002012E00026DBE73B6843F480733B6096
:100CFC00FFF70CFB80463B68DB05D5D4FFF706FB02
:100D0C00A0EB08006428F6D9032002B0BDE8F081FE
:100D1C0002F440729A42CCD00120134A236AC2F8E2
:100D2C004004002023F44071DF07C2F84004216224
:100D3C00BFD5FFF7EBFA41F288380746236A9807CC
:100D4C00B7D4FFF7E3FAC01B4045F7D9DCE7044AF8
:100D5C00E968536823F480030B435360C0E700BF7A
:100D6C000010024000700040000042427047704783
:100D7C00036870B5DD681E690446B1070DD5AA0776
:100D8C000BD56FF002021A61012202779B699B0757
:100D9C0069D000F0E1FB00232377710710D56A07B7
:100DAC000ED56FF00402236820461A6102222277C6
:100DBC009B6913F4407F5CD000F0CEFB00232377BB
:100DCC0033070FD528070DD56FF00802236820468E
:100DDC001A6104222277DB69990750D000F0BCFB22
:100DEC0000232377F20610D5EB060ED56FF0100218
:100DFC00236820461A6108222277DB6913F4407FAE
:100E0C0043D000F0A9FB00232377F00708D5E907AE
:100E1C0006D56FF00102236820461A6100F079FBB9
:100E2C00320608D52B0606D56FF0800223682046C3
:100E3C001A6100F032F8700608D5690606D56FF015
:100E4C004002236820461A61FFF791FFB20622D5B3
:100E5C00AB0620D56FF0200223682046BDE8704019
:100E6C001A6100F019B800F075FB2046FFF77EFF01
:100E7C0091E700F06FFB2046FFF778FF9EE700F04C
:100E8C0069FB2046FFF772FFAAE700F063FB2046E0
:100E9C00FFF76CFFB7E770BD70477047026802F14F
:100EAC000C0353E8003F23F490730C3242E80031FA
:100EBC0002680029F2D102F1140353E8003F23F039
:100ECC00010302F1140C4CE800310029F3D1036B3F
:100EDC00012B0BD102F10C0353E8003F23F010035C
:100EEC0002F10C0C4CE800310029F3D1202380F8DE
:100EFC00423000230363704710B504460368C16891
:100F0C001A6922F440520A431A6182680069D9684E
:100F1C000243606921F4B05121F00C0102430A43F1
:100F2C00DA605A69A16922F440720A435A610E4A86
:100F3C00934215D1FFF790FE192343436268206852
:100F4C009200B3FBF2F36422B3FBF2F102FB113318
:100F5C001B013233B3FBF2F303EB0113836010BDBF
:100F6C00FFF76AFEE8E700BF00380140704710B594
:100F7C00044648B390F8413003F0FF021BB980F8E7
:100F8C004020FFF7F3FF2423226884F84130D36814
:100F9C00204623F40053D360FFF7AEFF23680020F4
:100FAC001A6922F490421A615A6922F02A025A6193
:100FBC00DA6842F40052DA602023606484F841302D
:100FCC0084F84230606310BD0120FCE710B5044684
:100FDC0068B390F8413003F0FF021BB980F8402051
:100FEC00FFF7C4FF2423226884F84130D3682046DD
:100FFC0023F40053D360FFF77FFF236800201A69A6
:10100C0022F490421A615A6922F022025A615A69FA
:10101C0042F008025A61DA6842F40052DA60202386
:10102C00606484F8413084F84230606310BD012064
:10103C00FCE790F84130202B10D189B182B1C284E9
:10104C0082840023212201620168436480F84120DC
:10105C00CA68184642F08002CA6070470220704786
:10106C000120704708B50023406AC385C38400F093
:10107C00B7FF08BD704790F8423007B5222B42D11C
:10108C0081680268B1F5805F836A3FD101690029EC
:10109C003FD15268C2F3080223F8022B8362C38D3E
:1010AC00013B9BB2C385002B2DD10268D16821F086
:1010BC002001D160D16821F48071D160516921F097
:1010CC0001015161202280F842204363026B012A06
:1010DC00026828D1036302F10C0353E8003F23F0AC
:1010EC00100302F10C0C4CE800310029F3D1136809
:1010FC00DB0605D501911368019353680193019B9D
:10110C00818DFFF7B7FF03B05DF804FB39B90169B6
:10111C0029B95268D2B21A70836A0133BEE7526899
:10112C0002F07F02F7E700F055FFECE7036873B5B8
:10113C001A6804461607D9685D6908D1960668D501
:10114C008D0666D502B0BDE87040FFF794BF05F080
:10115C00010001F4907505435BD0D60705D5CD058C
:10116C0042BF636C43F001036364530704D518B1A9
:10117C00636C43F002036364960704D518B1636C87
:10118C0043F004036364150707D501F02003034300
:10119C001EBF636C43F008036364636C002B32D096
:1011AC00920604D58B0602D52046FFF764FF26680D
:1011BC0020467369626C03F0400302F0080253EAA4
:1011CC00020522D0FFF76AFE73695E0618D5226805
:1011DC0002F1140353E8003F23F04003143242E8B9
:1011EC0000310029F3D1E06B50B1744B4363FFF72E
:1011FC004DF940B1E06B436B02B0BDE8704018474D
:10120C00204600F0EDFE02B070BD00F0E9FE656412
:10121C00F9E7206B012840F09480D50640F19180CD
:10122C00C80640F18E80002201921A6801925A6819
:10123C000192019A5A6952064DD5E16B0A685268BF
:10124C0092B2002ADFD0A08D9042DCD9E2858A6967
:10125C00202A36D003F10C0252E8002F22F48072BF
:10126C0003F10C0040E800210029F3D103F1140232
:10127C0052E8002F22F0010203F1140040E8002193
:10128C000029F3D103F1140252E8002F22F040029E
:10129C0003F1140040E800210029F3D1202284F846
:1012AC004220216303F10C0252E8002F22F01002BD
:1012BC0003F10C0040E800210029F3D1E06BFFF7AB
:1012CC00C5F802236363E38DA18DC91A89B2204648
:1012DC00FFF7D0FE97E7E28DE08DA18D80B292B240
:1012EC00002890D0891A89B200298CD003F10C0205
:1012FC0052E8002F22F4907203F10C0545E800200F
:10130C000028F3D103F1140252E8002F22F001025D
:10131C0003F1140545E800200028F3D1202284F8BD
:10132C004220206303F10C0252E8002F22F010023D
:10133C0003F10C0545E800200028F3D10223636378
:10134C00C5E7160628D50D0626D594F84120212A86
:10135C007FF459AFA168226AB1F5805F17D121697A
:10136C00A9B932F8021BC1F3080159602262E28C60
:10137C00013A92B2E284002A7FF445AFDA6822F097
:10138C008002DA60DA6842F04002DA603BE7511C16
:10139C00216212785A60EAE750067FF534AF4A06AC
:1013AC007FF531AFDA68204622F04002DA60202364
:1013BC0084F8413000F011FE25E700BF71100008E1
:1013CC0090F84030012B11D02423026880F8413072
:1013DC00D36823F00C0343F00803D360202380F878
:1013EC004130002380F84030184670470220704787
:1013FC0090F84030012B11D02423026880F8413042
:10140C00D36823F00C0343F00403D360202380F84B
:10141C004130002380F84030184670470220704756
:10142C0090F8412090F84200104370470023C28589
:10143C00436422238285026980F84230816203680A
:10144C001AB1DA6842F48072DA605A69002042F00C
:10145C0001025A61DA6842F02002DA60704770B417
:10146C0090F84260202E06D141B13AB100240463B9
:10147C0070BCFFF7DBBF022070BC70470120FBE79C
:10148C00836810B5044613B10322014698472046E1
:10149C0010BD0000034B186810B10430FFF768BC96
:1014AC00704700BFA8000020FFF7F4BF034B58683B
:1014BC0010B10430FFF75CBC704700BFA8000020DF
:1014CC00034B986810B10430FFF752BC704700BF53
:1014DC00A8000020034BD86810B10430FFF748BCBB
:1014EC00704700BFA8000020826810B50AB901F04F
:1014FC0085F9C368BDE81040184708B500B9FEE788
:10150C0000F0E2FB0068836E13B16030FFF7ECFF74
:10151C0008BDFFF7F2BF10B500B9FEE7037F013B32
:10152C00072B10D8DFE803F004140F100F0F0F1265
:10153C00012400F0C9FB0068063400EB041083683A
:10154C000BB1FFF7D1FF10BD0324F2E70424F0E741
:10155C000224EEE7FFF7DFBFFFF7DDBF86B00428FC
:10156C0041D8DFE800F003101C2834001F4B204842
:10157C009A6942F004029A619B6903F00403019397
:10158C00019B06B07047194B1A489A6942F0080241
:10159C009A619B6903F008030293029BF1E7134BDA
:1015AC0015489A6942F010029A619B6903F0100386
:1015BC000393039BE5E70D4B10489A6942F0200218
:1015CC009A619B6903F020030493049BD9E7074BB2
:1015DC000B489A6942F040029A619B6903F0400300
:1015EC000593059BCDE70020CBE700BF0010024020
:1015FC0000080140000C01400010014000140140A3
:10160C0000180140FEF782BE704708B5FEF772FE67
:10161C00FEF707FFFFF7F8FF08BD70470F4B84B0CC
:10162C00DA6942F08052DA61DA6902F08052019292
:10163C00019A9A6942F001029A619A6902F00102D8
:10164C000292029A5A6942F040025A615B6903F0B5
:10165C0040030393039B04B0704700BF001002408B
:10166C000C4BD3F8FC20D2015EBFD3F8FC2042F027
:10167C008072C3F8FC200022074B5A601A6842F0B3
:10168C0001021A6000BF00BF00BF5868B0FA80F0BA
:10169C004009704700ED00E0001000E008B5FFF7CE
:1016AC00BDFFFFF7DDFFFEF713FEFFF7B6FF00F0FF
:1016BC003BFDBDE808400148FEF7B8BE080000201D
:1016CC000023C0E90033C0E902337047002301282E
:1016DC0003F101020AD11422DBB25343054A181D4F
:1016EC001044816829B11A441369184713464008FD
:1016FC00EDE77047B80000200120FFF733B8022057
:10170C00FFF730B80420FFF72DB80820FFF72AB8F0
:10171C001020FFF727B838B505242025A8B2FFF70D
:10172C0021F8013C4FEA4505F8D138BD38B50624FF
:10173C004FF48065A8B2FFF715F8013C4FEA450558
:10174C00F8D138BD344A08B51046062300F8043BDE
:10175C00FFF7B6FF072302F118001375FFF7B0FF70
:10176C00082302F12C0082F82830FFF7A9FF092387
:10177C0002F1400082F83C30FFF7A2FF0A23172148
:10178C0002F1540082F85030FFF79AFF02F1680022
:10179C0082F86410FFF794FF02F17C0082F8781055
:1017AC00FFF78EFF02F1900082F88C10FFF788FF94
:1017BC0002F1A40082F8A010FFF782FF82F8B410A7
:1017CC00282102F1B800FFF77BFF02F1CC0082F870
:1017DC00C810FFF775FF02F1E00082F8DC10FFF78C
:1017EC006FFF02F1F40082F8F010FFF769FF02F5C9
:1017FC00847082F80411FFF763FF02F58E7082F893
:10180C001811FFF75DFFBDE8084002F5987082F8EB
:10181C002C11FFF755BF00BFB800002038B5054CA0
:10182C00A4F5A075143C201DFFF72AFEAC42F9D19B
:10183C0038BD00BFF80100207B4B82B09A6901389B
:10184C0042F001029A619B6903F001030193019B31
:10185C0023282CD8DFE810F024002D0034003B00A6
:10186C00400047004C00530058005F0068006D00BA
:10187C0074007D008200890092009B00A000A700EC
:10188C00B000B500BC002B002B002B00C100C80021
:10189C002B002B002B002B00CD00D200D900E00038
:1018AC00624A536843F0E06343F00103536002B0B3
:1018BC0070475E4A536823F0010343F0E063F5E799
:1018CC005A4A536843F0E06343F00203EEE7574A89
:1018DC00536823F00203F0E7544A536843F0E06383
:1018EC0043F00403E2E7514A536823F00403E4E7AE
:1018FC004E4A536843F0E06343F00803D6E74B4A83
:10190C00536823F00803D8E7484A536843F0E06370
:10191C0043F03003CAE7454A536823F0300343F0E1
:10192C00E06343F01003C1E7404A536823F03003EF
:10193C00C3E73E4A536843F0E06343F0C003B5E7A6
:10194C003A4A536823F0C00343F0E06343F040038A
:10195C00ACE7364A536823F0C003AEE7334A53680A
:10196C0043F0E06343F44073A0E7304A536823F438
:10197C00407343F0E06343F4007397E72B4A5368DA
:10198C0023F4407343F0E06343F480738EE7274AFB
:10199C00536823F4407390E7244A536843F0E063A0
:1019AC0043F4406382E7214A536823F4406343F0D5
:1019BC00E06343F4006379E71C4A536823F4406303
:1019CC007BE71A4A536843F0E06343F480536DE7B6
:1019DC00164A536823F480536FE7144A536843F054
:1019EC00E06343F4004361E7104A536823F4004377
:1019FC0063E70E4A536823F0E06357E70B4A5368DA
:101A0C0023F0E06343F0807350E7084A536823F0F7
:101A1C00E06343F0007349E7044A536823F0E06342
:101A2C0043F0806342E700BF001002400000014019
:101A3C0091FAA1F3B3FA83F370B50D0E0F2691FA58
:101A4C00A1F1B1FA81F144599B0006FA03F3890024
:101A5C0024EA03048A402243425170BD91FAA1F357
:101A6C00B3FA83F370B50D0E042691FAA1F1B1FA15
:101A7C0081F144599B0006FA03F3890024EA03041C
:101A8C008A402243425170BD431C2DE9F341064666
:101A9C000F4600D1FEE7594B00F00F02C0F30310C4
:101AAC0001F0070853F82240FFF758FDB8F1010F79
:101ABC00054615D194FAA4F3B3FA83F30321200E4F
:101ACC002A589B0001FA03F322EA030294FAA4F3C6
:101ADC00B3FA83F39B00994011432950012213E080
:101AEC00C7F30620B8F1030F0AD801A353F828F066
:101AFC000F1B0008E91A0008731B0008811B000863
:101B0C00FEE7FFF799FE08222146284608F1FF3828
:101B1C00FFF78EFFB8F1010F06D817F0080218BFB7
:101B2C0004222146FFF79AFF94FAA4F2230EB2FA8C
:101B3C0082F2E9580F239200934094FAA4F2B2FA7D
:101B4C0082F2C7F301170B409200012F23FA02F324
:101B5C0012D0022F3BD0082B21D10422214628463B
:101B6C00FFF766FF1BE07F2801D10922CCE7FFF7C6
:101B7C0063FEFAE70022C7E7042B04D108222146B2
:101B8C002846FFF755FF230A93FAA3F3B3FA83F21F
:101B9C000123E968934021EA14210B43EB60184BB5
:101BAC009A6942F001029A619B6903F00103019367
:101BBC00019BA6F10D03012B14D8124A536823F094
:101BCC00E06343F08063536002B0BDE8F081042B06
:101BDC0004D1082221462846FFF72AFFEB6823EAA6
:101BEC001423DBE70F2E02D0133E012EECD8054A4E
:101BFC00536823F0E06343F00073E4E768280008BF
:101C0C000010024000000140431C06D17047834283
:101C1C0002D18968FFF738BF0C310B685A1CF6D11A
:101C2C00FEE70B685A1C01D100207047834201D19A
:101C3C00486870470C31F4E7431C01D0FFF7F1BF43
:101C4C00002070474B6813B94FF0FF307047834248
:101C5C0001D1086870470C31F4E708B1FFF7F2BF07
:101C6C004FF0FF30704703468B42084604D01BB13F
:101C7C0000290CBF18460020704700000F4B1A6853
:101C8C0042F001021A6059680D4A0A405A601A68FB
:101C9C0022F0847222F480321A601A6822F48022B4
:101CAC001A605A6822F4FE025A604FF41F029A60BE
:101CBC004FF00062034B9A60704700BF0010024067
:101CCC000000FFF800ED00E0043870472DE9F04FFC
:101CDC0087B09846109B04468A46406D62499146EF
:101CEC000193FFF7A9FF61498346A06DFFF7A4FF9D
:101CFC005F490646E06DFFF79FFF5E490546206E83
:101D0C00FFF79AFF0746BBF1000F00F0A980A26D08
:101D1C00013202D0002E00F0A380E26D013202D01D
:101D2C00002D00F09D80226E013202D0002F00F0B9
:101D3C00978031465846FFF796FF29462060FFF7FB
:101D4C0092FF39462060FFF78EFF2060002800F0DC
:101D5C008780494B98424CD103F55843DA6842F4DA
:101D6C008042DA60DA6822F48042DA609A6942F4DE
:101D7C0080429A619B6903F480430393039B252360
:101D8C00A4F864303849606DFFF73EFF1EB1374947
:101D9C00A06DFFF739FF2DB13549E06DFFF734FF2A
:101DAC004FF480752FB13349206E45F40075FFF761
:101DBC002BFF94F86520314B271D43F822702368C4
:101DCC000022C4E9013A019B94F96400C4E9043887
:101DDC000C230121C4E90635C4F80C902262FEF7ED
:101DEC00ADFA3846002E36D107B0BDE8F04FFFF7FC
:101DFC00EDB8234B984215D103F5E6331A6942F43A
:101E0C0000321A611A6922F400321A61DA6942F45A
:101E1C000032DA61DB6903F400330493049B4FF462
:101E2C009373ADE7174B9842ACD103F5E4331A69C1
:101E3C0042F480221A611A6922F480221A61DA694A
:101E4C0042F48022DA61DB6903F480230593059B5D
:101E5C0040F2272394E707B0BDE8F04FFFF787B8AF
:101E6C0007B0BDE8F08F00BF7429000838290008BE
:101E7C00FC280008C028000800380140F8010020A8
:101E8C00004400400048004010B4019C18B101947B
:101E9C0010BCFFF71BBF10BC7047000008B5074B08
:101EAC0090F8652053F82200FFF7BAFA00F02200F0
:101EBC00A0F122035842584108BD00BFF801002090
:101ECC0008B5074B90F8652053F82200FFF7A8FAE5
:101EDC0000F02100A0F121035842584108BD00BF79
:101EEC00F801002070B50E46054610B94FF0FF30D2
:101EFC0070BDFFF7D3FF04460028F7D1294611F82F
:101F0C00663F0122337095F86500034B53F82000AF
:101F1C00FFF7A5FA2046EBE7F801002038B50D468F
:101F2C000446B8B1FFF7BAFFA0B994F96400E564B0
:101F3C00FEF742FA94F86500074B04F1660153F87A
:101F4C0020000122FFF78BFA94F96400BDE83840B9
:101F5C00FEF724BA38BD00BFF801002038B515468D
:101F6C000446B8B1016590F96400FEF725FAB4F89F
:101F7C007630E16E9BB294F865001944064BAAB218
:101F8C0053F82000FFF755F894F96400BDE8384089
:101F9C00FEF704BA38BD00BFF801002048B1836DCC
:101FAC00013306D190F86520024B53F82200FFF75D
:101FBC0007BA7047F801002048B1836D013306D190
:101FCC0090F86520024B53F82200FFF711BA7047C6
:101FDC00F8010020836C04381847C36C0438184788
:101FEC0030B5044650F8043985B01D6815F001056C
:101FFC0012D0002200921A6800925B680093009B3A
:10200C00FFF74CFF40BB0122204604F1620105B0F2
:10201C00BDE83040FFF723BA196811F0020106D071
:10202C0001951A6801925B680193019BE8E71A68B5
:10203C0012F0040206D002911A6802925B680293B5
:10204C00029BDDE719680907DAD503921A68039237
:10205C005B680393039BD3E705B030BD08B525201F
:10206C00FEF7D0F9024B1868BDE80840FFF75EB8E0
:10207C00F8010020262008B5FEF7C4F9034B586878
:10208C0018B1BDE80840FFF751B808BDF8010020B1
:10209C00272008B5FEF7B6F9034B986818B1BDE8D0
:1020AC000840FFF743B808BDF8010020FEE7000028
:1020BC001622024B4FF0FF301A6070475404002078
:1020CC00012070471148854672B6BFF34F8FBFF39E
:1020DC006F8F71B6002103E00D4B5B5843500431F8
:1020EC000C480D4B42189A42F6D30C4A02E00023DE
:1020FC0042F8043B0A4B9A42F9D3FFF7BFFD62B694
:10210C0061B600F0FDFA00F0D7FA704700500020DD
:10211C00902A0008000000206400002068000020C5
:10212C0058040020FEE700BE10B594B01422002124
:10213C000CA800F0DDFA142200210DEB020000F0D7
:10214C00D7FA1022002101A800F0D2FA02244FF491
:10215C0080330122CDE91143CDE90A234FF4E0137A
:10216C000AA80E921393FEF709FB00B1FEE70F23AA
:10217C00CDE905344FF480630790CDE90830214652
:10218C0005A8FEF7BDFC00B1FEE7122301934FF446
:10219C000043CDE9033001A8FEF76EFD00B1FEE768
:1021AC0014B010BDB0F80831B0F80421981A00F042
:1021BC003F007047B0F80831B0F804219BB293424D
:1021CC001ABFD0F8FC30985C4FF0FF30704790F895
:1021DC000631B0F80A01C0B2834227BFC3F13F03F6
:1021EC00C018C01A00F1FF30704707B503688DF8AE
:1021FC00071001225B680DF10701984703B05DF8E9
:10220C0004FB13B50DF107010446FFF76BFE88B90B
:10221C00B4F87430B4F87020013303F03F039342E8
:10222C0008D0B4F874209DF80700A16E92B28854BF
:10223C00A4F8743002B010BDB0F87610826F10B5EF
:10224C000A4402F03F02A0F87620B0F87610B0F8FD
:10225C00722089B28A421AD0B0F876404032A4B2C9
:10226C00B0F87610121B544289B204F03F0402F00D
:10227C003F02C1F1400158BF62428A4228BF0A4660
:10228C0004498267FFF76AFE4FF0FF3010BD002053
:10229C00FCE700BF452200082DE9F843036804461B
:1022AC009B6888461646984701232374D4F8EC3073
:1022BC00B4F8067101338146C7F1400709D194F88F
:1022CC00103133B1002304F1940084F81031FFF77E
:1022DC0065FE236820469B6898470028F9D0354650
:1022EC00AF4225D34D4523D8B4F80631D4F80001BC
:1022FC005A19402A184430D82A46414600F024FA8C
:10230C002F46B4F806311D4405F03F05A4F80651DC
:10231C0004F194052846FFF7D3FD30B93A46284618
:10232C001549C4F80C71FFF719FE3046BDE8F88367
:10233C004F4528BF4F4623683A4641465B682046C6
:10234C009847236820469B689847ED1BB844B4F81F
:10235C0006718146C7F14007C2E7C3F140073A4610
:10236C00414600F0F1F9D4F80001EA1B08EB070133
:10237C0000F0EAF9C5E700BF45220008C0F8F030CC
:10238C00009B914208BF4FF0FF31C0F8F43000F1D0
:10239C001103C0F8FC300023C0E93A2100F15102CE
:1023AC00A0F80831C0E94023A0F80A3170470000BA
:1023BC00F7B54FF47A7317460022C0E901231C4B82
:1023CC00044603604FF0FF33C0F8EC30194B1A4E43
:1023DC009C420D46F06A05D1B36AC4F8EC30C4F8DF
:1023EC00E8000AE01549FFF727FC854215D1B36ACE
:1023FC00C4F8EC30F36AC4F8E8304FF0FF33012F27
:10240C0008BFC4F8EC3000932046D4E93A214FF0D1
:10241C00FF33FFF7B3FF03B0F0BD28460849FFF7C1
:10242C001CFC0649C4F8EC002846FFF716FCD6E75E
:10243C004C2A000804020020B02900087429000866
:10244C0038290008037C70B504460D46A3B1FDF78E
:10245C005DFF0646B4F80621B4F80A319BB29A42E5
:10246C000AD0002DF8D0FDF751FF801B8542F1D822
:10247C00B4F80A31A4F8063170BD0021FFF7E2BFB1
:10248C00D0F8EC3010B5013304460ED10368DB688C
:10249C00984794F8103143B9012304F1940084F85F
:1024AC001031BDE81040FFF787BD10BD73B5144661
:1024BC0002F00703023BDBB2042B80F8112196BF1C
:1024CC001A4A0022D25C04F03003302B0546C0F8C7
:1024DC00141107D14FF4C0630132082A09D0092A1C
:1024EC001BD0FEE714F020031CD04FF480630132A4
:1024FC00F3E70022C4F3C00405F1940664033046EC
:10250C000094FFF7C1FC2846FFF7BAFF3046084994
:10251C0002B0BDE87040FFF701BD4FF48052E9E70F
:10252C001A46E7E7082AFBD0DBE700BF3C2A000885
:10253C000F22000810B50446FFF7A2FFB4F80821DB
:10254C00B4F8043192B29A4217BFD4F8FC204FF081
:10255C00FF30D05C01331CBF03F03F03A4F80431FF
:10256C0010BD0000002202490248FFF721BF00BF46
:10257C00003801400402002070B505460C460846A0
:10258C0049B1FDF7BDFD2B68024621462846BDE842
:10259C0070405B68184770BD08B5FFF7EDFF08BDCC
:1025AC0008B50249FFF7E8FF08BD00BF5328000833
:1025BC0038B50546FFF7E0FF04462846FFF7F0FF65
:1025CC00204438BDFFF7F4BF0023012A98BF0A222C
:1025DC0030B58BB00C468DF8243009A92546B4FBD8
:1025EC00F2F404FB1253DBB2092B94BF30333733B4
:1025FC00DBB2AA4201F8013DF0D9FFF7BDFF0BB0E9
:10260C0030BD10B422B9026810BC1268C9B21047B0
:10261C0010BCD2B2FFF7D8BF38B50546FFF7F1FFB3
:10262C0004462846FFF7BCFF204438BD10B50446CD
:10263C0000F04CF8E060236820465B69984700285E
:10264C0008DA00F043F8E368C01AA3689842F2D3A2
:10265C004FF0FF3010BDF8B507460D460C468E18EE
:10266C00B44201D1601BF8BD3846FFF7DFFF031EF3
:10267C00F8DB04F8013BF3E72DE9F0410746884607
:10268C0016461D4673B100243846FFF7CFFF031ED4
:10269C0005DB434503D033550134A542F4D1204624
:1026AC00BDE8F0811C46FAE708B50320FDF734FEBF
:1026BC00BDE8084000F01AB808B5AFF30080FDF78C
:1026CC00ABFDFDF7DFFD00F003F8FAE7FEF79ABF6C
:1026DC0008B5044B2BB10448FFF764FD08B1AFF308
:1026EC00008008BD0000000004020020FEF7D6BFE9
:1026FC0003460244934200D1704703F8011BF9E7EB
:10270C0070B500260C4D0D4C641BA410A64209D1CB
:10271C0000F078F800260A4D0A4C641BA410A6425F
:10272C0005D170BD55F8043B98470136EEE755F8D6
:10273C00043B98470136F2E7782A0008782A00080B
:10274C00782A0008882A00080A44914200F1FF33D5
:10275C0000D1704710B511F8014B914203F8014FAD
:10276C00F9D110BD062008B500F02CF80120FFF7B8
:10277C009DFC1F2938B505460C4604D91623036069
:10278C004FF0FF3038BDC26B12B152F821304BB94B
:10279C00284600F031F8224601462846BDE838406C
:1027AC0000F018B8012B0AD0591C03D11623036072
:1027BC000120E7E70021204642F82410984700202A
:1027CC00E0E70000024B01461868FFF7D2BF00BFDC
:1027DC001400002038B50023064D04460846114667
:1027EC002B60FFF765FC431C02D12B6803B12360FF
:1027FC0038BD00BF54040020FFF762BC08B5FFF7DA
:10280C00B1FF0000F8B500BFF8BC08BC9E4670478D
:0C281C00F8B500BFF8BC08BC9E46704731
:102828004142434445464748490053746F726564C2
:1028380020496E74656765723A200053746F72653B
:102848006420537472696E673A20000D0A00010211
:1028580002030405060708090A0B0C0D0E0F1010D9
:102868000101000002020000040400000808000042
:102878001010000020200000404000008080000070
:102888000100010402000204040004040800080412
:102898001000100420002004400040048000800440
:1028A8000000000001020304000000000000000016
:1028B8000102030406070809000000000044004064
:1028C800120000000B000000003801401200000058
:1028D8001D00000000480040120B00001D01000010
:1028E80000480040120A0000FFFFFFFF0000000040
:1028F8000000000001000000004400401208000031
:102908000C00000000380140120000001E0000000A
:1029180000480040120000001E010000004800406E
:10292800120A0000FFFFFFFF000000000000000087
:102938000300000000440040100800000A000000E6
:102948000038014010060000170000000038014060
:10295800100500001B0000000048004010000000A7
:10296800FFFFFFFF00000000000000000200000061
:10297800004400401208000009000000003801402F
:102988001206000016000000003801401205000081
:102998001A0000000048004012000000FFFFFFFF7F
:1029A80000000000000000001900000018000000EE
:1029B80017000000160000001500000014000000B9
:1029C800130000000F0000000C0000000B000000C6
:1029D8000A00000009000000080000001F000000B5
:1029E8001E0000001D0000001C0000002D0000005B
:1029F8002E0000002F000000000000000100000071
:102A080002000000030000000400000005000000B0
:102A18000600000007000000100000001100000080
:102A28001A0000001B000000120000000D0000004A
:102A38000E0000000600070008000000000000006B
:102A480000000000F7210008A5220008DB2100088B
:102A580087240008B121000841250008C121000889
:082A6800632600088526000822
:082A70009CD6FF7F010000006D
:102A7800B526000841010008511700087125000813
:082A88001D01000829180008D7
:102A900001000000100000000030024000000000B3
:102AA00000127A0018000020000000001C03002023
:102AB00084030020EC030020000000000000000060
:102AC0000000000000000000000000000000000006
:102AD00000000000000000000000000000000000F6
:102AE00000000000000000000000000000000000E6
:042AF00000000000E2
:04000005080020D1FE
:00000001FF
